{
    "_format": "hh-sol-artifact-1",
    "contractName": "KYC",
    "sourceName": "contracts/KYC.sol",
    "abi": [
        {
            "inputs": [
                {
                    "internalType": "address",
                    "name": "_nftAddress",
                    "type": "address"
                }
            ],
            "stateMutability": "nonpayable",
            "type": "constructor"
        },
        {
            "inputs": [],
            "name": "KYC__AddressHasNotMinted",
            "type": "error"
        },
        {
            "inputs": [],
            "name": "KYC__DataDoesNotExist",
            "type": "error"
        },
        {
            "inputs": [],
            "name": "KYC__FieldDoesNotExist",
            "type": "error"
        },
        {
            "inputs": [],
            "name": "KYC__INVALIDSignatureLength",
            "type": "error"
        },
        {
            "inputs": [],
            "name": "KYC__NotOwner",
            "type": "error"
        },
        {
            "inputs": [],
            "name": "KYC__NotYetApprovedToEncryptWithPublicKey",
            "type": "error"
        },
        {
            "inputs": [],
            "name": "KYC__NotYetApprovedToView",
            "type": "error"
        },
        {
            "anonymous": false,
            "inputs": [
                {
                    "indexed": true,
                    "internalType": "address",
                    "name": "approver",
                    "type": "address"
                },
                {
                    "indexed": true,
                    "internalType": "address",
                    "name": "thirdParty",
                    "type": "address"
                },
                {
                    "indexed": true,
                    "internalType": "string",
                    "name": "data",
                    "type": "string"
                }
            ],
            "name": "AccessGrant",
            "type": "event"
        },
        {
            "anonymous": false,
            "inputs": [
                {
                    "indexed": true,
                    "internalType": "address",
                    "name": "requester",
                    "type": "address"
                },
                {
                    "indexed": true,
                    "internalType": "address",
                    "name": "to",
                    "type": "address"
                },
                {
                    "indexed": true,
                    "internalType": "string",
                    "name": "data",
                    "type": "string"
                }
            ],
            "name": "ApproveRequest",
            "type": "event"
        },
        {
            "anonymous": false,
            "inputs": [
                {
                    "indexed": true,
                    "internalType": "address",
                    "name": "approver",
                    "type": "address"
                },
                {
                    "indexed": true,
                    "internalType": "address",
                    "name": "requester",
                    "type": "address"
                },
                {
                    "indexed": false,
                    "internalType": "string",
                    "name": "data",
                    "type": "string"
                }
            ],
            "name": "GrantRevoke",
            "type": "event"
        },
        {
            "inputs": [
                {
                    "internalType": "address",
                    "name": "dataRequester",
                    "type": "address"
                },
                {
                    "internalType": "address",
                    "name": "dataProvider",
                    "type": "address"
                },
                {
                    "internalType": "string",
                    "name": "data",
                    "type": "string"
                }
            ],
            "name": "approveCondition",
            "outputs": [
                {
                    "internalType": "bool",
                    "name": "",
                    "type": "bool"
                }
            ],
            "stateMutability": "view",
            "type": "function"
        },
        {
            "inputs": [
                {
                    "internalType": "address",
                    "name": "dataProvider",
                    "type": "address"
                },
                {
                    "internalType": "string",
                    "name": "data",
                    "type": "string"
                }
            ],
            "name": "decryptMyData",
            "outputs": [
                {
                    "internalType": "string",
                    "name": "",
                    "type": "string"
                }
            ],
            "stateMutability": "view",
            "type": "function"
        },
        {
            "inputs": [
                {
                    "internalType": "address",
                    "name": "dataProviderAddress",
                    "type": "address"
                }
            ],
            "name": "generateHash",
            "outputs": [
                {
                    "internalType": "bytes32",
                    "name": "",
                    "type": "bytes32"
                }
            ],
            "stateMutability": "nonpayable",
            "type": "function"
        },
        {
            "inputs": [
                {
                    "internalType": "address",
                    "name": "dataProviderAddress",
                    "type": "address"
                }
            ],
            "name": "getEthHashedData",
            "outputs": [
                {
                    "internalType": "bytes32",
                    "name": "",
                    "type": "bytes32"
                }
            ],
            "stateMutability": "view",
            "type": "function"
        },
        {
            "inputs": [
                {
                    "internalType": "address",
                    "name": "dataProvider",
                    "type": "address"
                },
                {
                    "internalType": "string",
                    "name": "kycField",
                    "type": "string"
                }
            ],
            "name": "getRequestedDataFromProvider",
            "outputs": [
                {
                    "internalType": "string",
                    "name": "",
                    "type": "string"
                }
            ],
            "stateMutability": "view",
            "type": "function"
        },
        {
            "inputs": [
                {
                    "internalType": "address",
                    "name": "dataRequester",
                    "type": "address"
                },
                {
                    "internalType": "string",
                    "name": "kycField",
                    "type": "string"
                }
            ],
            "name": "grantAccessToRequester",
            "outputs": [],
            "stateMutability": "nonpayable",
            "type": "function"
        },
        {
            "inputs": [
                {
                    "internalType": "address",
                    "name": "dataProvider",
                    "type": "address"
                },
                {
                    "internalType": "string",
                    "name": "kycField",
                    "type": "string"
                }
            ],
            "name": "requestApproveFromDataProvider",
            "outputs": [],
            "stateMutability": "nonpayable",
            "type": "function"
        },
        {
            "inputs": [
                {
                    "internalType": "address",
                    "name": "dataRequester",
                    "type": "address"
                },
                {
                    "internalType": "string",
                    "name": "kycField",
                    "type": "string"
                }
            ],
            "name": "revokeGrantToRequester",
            "outputs": [],
            "stateMutability": "nonpayable",
            "type": "function"
        },
        {
            "inputs": [
                {
                    "internalType": "string",
                    "name": "_name",
                    "type": "string"
                },
                {
                    "internalType": "string",
                    "name": "_father_name",
                    "type": "string"
                },
                {
                    "internalType": "string",
                    "name": "_mother_name",
                    "type": "string"
                },
                {
                    "internalType": "string",
                    "name": "_grandFather_name",
                    "type": "string"
                },
                {
                    "internalType": "string",
                    "name": "_phone_number",
                    "type": "string"
                },
                {
                    "internalType": "string",
                    "name": "_dob",
                    "type": "string"
                },
                {
                    "internalType": "string",
                    "name": "_blood_group",
                    "type": "string"
                },
                {
                    "internalType": "string",
                    "name": "_citizenship_number",
                    "type": "string"
                },
                {
                    "internalType": "string",
                    "name": "_pan_number",
                    "type": "string"
                },
                {
                    "internalType": "string",
                    "name": "_location",
                    "type": "string"
                }
            ],
            "name": "setUserData",
            "outputs": [],
            "stateMutability": "nonpayable",
            "type": "function"
        },
        {
            "inputs": [
                {
                    "internalType": "address",
                    "name": "dataRequester",
                    "type": "address"
                },
                {
                    "internalType": "string",
                    "name": "kycField",
                    "type": "string"
                },
                {
                    "internalType": "string",
                    "name": "data",
                    "type": "string"
                }
            ],
            "name": "storeRsaEncryptedinRetrievable",
            "outputs": [],
            "stateMutability": "nonpayable",
            "type": "function"
        },
        {
            "inputs": [
                {
                    "internalType": "string",
                    "name": "kycField",
                    "type": "string"
                },
                {
                    "internalType": "string",
                    "name": "data",
                    "type": "string"
                }
            ],
            "name": "updateKYCDetails",
            "outputs": [],
            "stateMutability": "nonpayable",
            "type": "function"
        },
        {
            "inputs": [
                {
                    "internalType": "address",
                    "name": "dataProviderAddress",
                    "type": "address"
                },
                {
                    "internalType": "bytes",
                    "name": "signature",
                    "type": "bytes"
                }
            ],
            "name": "verify",
            "outputs": [
                {
                    "internalType": "bool",
                    "name": "",
                    "type": "bool"
                }
            ],
            "stateMutability": "nonpayable",
            "type": "function"
        }
    ],
    "bytecode": "0x60a06040523480156200001157600080fd5b5060405162003c9b38038062003c9b8339818101604052810190620000379190620000dc565b8073ffffffffffffffffffffffffffffffffffffffff1660808173ffffffffffffffffffffffffffffffffffffffff1681525050506200010e565b600080fd5b600073ffffffffffffffffffffffffffffffffffffffff82169050919050565b6000620000a48262000077565b9050919050565b620000b68162000097565b8114620000c257600080fd5b50565b600081519050620000d681620000ab565b92915050565b600060208284031215620000f557620000f462000072565b5b60006200010584828501620000c5565b91505092915050565b608051613b6a6200013160003960008181610c2501526110280152613b6a6000f3fe608060405234801561001057600080fd5b50600436106100b45760003560e01c8063852beb5611610071578063852beb5614610189578063be11ff70146101a5578063d822f825146101d5578063df4f354714610205578063f2aeb85214610235578063ff841e0f14610251576100b4565b806321a3f733146100b95780633df32710146100e95780634a41d1ac14610105578063517dfd5a1461013557806351f1dd771461015157806365ca9ba11461016d575b600080fd5b6100d360048036038101906100ce919061284c565b610281565b6040516100e09190612892565b60405180910390f35b61010360048036038101906100fe91906129f3565b610293565b005b61011f600480360381019061011a9190612af0565b61041e565b60405161012c9190612b67565b60405180910390f35b61014f600480360381019061014a9190612b82565b6104d6565b005b61016b60048036038101906101669190612c0d565b610568565b005b61018760048036038101906101829190612c85565b610c23565b005b6101a3600480360381019061019e91906129f3565b610e8f565b005b6101bf60048036038101906101ba91906129f3565b611024565b6040516101cc9190612efb565b60405180910390f35b6101ef60048036038101906101ea91906129f3565b611206565b6040516101fc9190612efb565b60405180910390f35b61021f600480360381019061021a9190612f1d565b611e03565b60405161022c9190612b67565b60405180910390f35b61024f600480360381019061024a91906129f3565b611e73565b005b61026b6004803603810190610266919061284c565b611f7a565b6040516102789190612892565b60405180910390f35b600061028c82611fc3565b9050919050565b818160006102a2338484612044565b9050816040516020016102b59190612fc8565b60405160208183030381529060405280519060200120600160008381526020019081526020016000206040516020016102ee91906130d7565b6040516020818303038152906040528051906020012014610344576040517f08c379a000000000000000000000000000000000000000000000000000000000815260040161033b9061313a565b60405180910390fd5b6000610351338787612044565b9050600060208260006020811061036b5761036a61315a565b5b1a60f81b60f81c60ff1661037f91906131c2565b9050600061038c8261207a565b90508019600080858152602001908152602001600020600082825416925050819055508773ffffffffffffffffffffffffffffffffffffffff163373ffffffffffffffffffffffffffffffffffffffff167f1c74b14b2a92b57b505a4f01e3b18f7b7f09f7038625fea406fa666f3308e9368960405161040c9190612efb565b60405180910390a35050505050505050565b60008061042a84611fc3565b90508373ffffffffffffffffffffffffffffffffffffffff1661044d8285612088565b73ffffffffffffffffffffffffffffffffffffffff16036104ca576001600260008673ffffffffffffffffffffffffffffffffffffffff1673ffffffffffffffffffffffffffffffffffffffff168152602001908152602001600020600a0160006101000a81548160ff02191690831515021790559150506104d0565b60009150505b92915050565b60006104e3338585612044565b905060008060008381526020019081526020016000205403610531576040517ff4ed8f1b00000000000000000000000000000000000000000000000000000000815260040160405180910390fd5b600061053e338686612044565b905082600460008381526020019081526020016000209081610560919061338a565b505050505050565b816040516020016105799190612efb565b6040516020818303038152906040528051906020012060405160200161059e906134a8565b604051602081830303815290604052805190602001200361060e5780600260003373ffffffffffffffffffffffffffffffffffffffff1673ffffffffffffffffffffffffffffffffffffffff1681526020019081526020016000206000019081610608919061338a565b50610c1f565b8160405160200161061f9190612efb565b6040516020818303038152906040528051906020012060405160200161064490613514565b60405160208183030381529060405280519060200120036106b45780600260003373ffffffffffffffffffffffffffffffffffffffff1673ffffffffffffffffffffffffffffffffffffffff16815260200190815260200160002060000190816106ae919061338a565b50610c1e565b816040516020016106c59190612efb565b604051602081830303815290604052805190602001206040516020016106ea90613580565b604051602081830303815290604052805190602001200361075a5780600260003373ffffffffffffffffffffffffffffffffffffffff1673ffffffffffffffffffffffffffffffffffffffff1681526020019081526020016000206000019081610754919061338a565b50610c1d565b8160405160200161076b9190612efb565b60405160208183030381529060405280519060200120604051602001610790906135ec565b60405160208183030381529060405280519060200120036108005780600260003373ffffffffffffffffffffffffffffffffffffffff1673ffffffffffffffffffffffffffffffffffffffff16815260200190815260200160002060000190816107fa919061338a565b50610c1c565b816040516020016108119190612efb565b6040516020818303038152906040528051906020012060405160200161083690613658565b60405160208183030381529060405280519060200120036108a65780600260003373ffffffffffffffffffffffffffffffffffffffff1673ffffffffffffffffffffffffffffffffffffffff16815260200190815260200160002060000190816108a0919061338a565b50610c1b565b816040516020016108b79190612efb565b604051602081830303815290604052805190602001206040516020016108dc906136c4565b604051602081830303815290604052805190602001200361094c5780600260003373ffffffffffffffffffffffffffffffffffffffff1673ffffffffffffffffffffffffffffffffffffffff1681526020019081526020016000206000019081610946919061338a565b50610c1a565b8160405160200161095d9190612efb565b6040516020818303038152906040528051906020012060405160200161098290613730565b60405160208183030381529060405280519060200120036109f25780600260003373ffffffffffffffffffffffffffffffffffffffff1673ffffffffffffffffffffffffffffffffffffffff16815260200190815260200160002060000190816109ec919061338a565b50610c19565b81604051602001610a039190612efb565b60405160208183030381529060405280519060200120604051602001610a289061379c565b6040516020818303038152906040528051906020012003610a985780600260003373ffffffffffffffffffffffffffffffffffffffff1673ffffffffffffffffffffffffffffffffffffffff1681526020019081526020016000206000019081610a92919061338a565b50610c18565b81604051602001610aa99190612efb565b60405160208183030381529060405280519060200120604051602001610ace90613808565b6040516020818303038152906040528051906020012003610b3e5780600260003373ffffffffffffffffffffffffffffffffffffffff1673ffffffffffffffffffffffffffffffffffffffff1681526020019081526020016000206000019081610b38919061338a565b50610c17565b81604051602001610b4f9190612efb565b60405160208183030381529060405280519060200120604051602001610b7490613874565b6040516020818303038152906040528051906020012003610be45780600260003373ffffffffffffffffffffffffffffffffffffffff1673ffffffffffffffffffffffffffffffffffffffff1681526020019081526020016000206000019081610bde919061338a565b50610c16565b6040517fbd293d9400000000000000000000000000000000000000000000000000000000815260040160405180910390fd5b5b5b5b5b5b5b5b5b5b5050565b7f000000000000000000000000000000000000000000000000000000000000000073ffffffffffffffffffffffffffffffffffffffff166338e21cce336040518263ffffffff1660e01b8152600401610c7c91906138a3565b602060405180830381865afa158015610c99573d6000803e3d6000fd5b505050506040513d601f19601f82011682018060405250810190610cbd91906138ea565b610cf3576040517f512e6ab200000000000000000000000000000000000000000000000000000000815260040160405180910390fd5b6040518061016001604052808b81526020018a815260200189815260200188815260200187815260200186815260200185815260200184815260200183815260200182815260200160001515815250600260003373ffffffffffffffffffffffffffffffffffffffff1673ffffffffffffffffffffffffffffffffffffffff1681526020019081526020016000206000820151816000019081610d96919061338a565b506020820151816001019081610dac919061338a565b506040820151816002019081610dc2919061338a565b506060820151816003019081610dd8919061338a565b506080820151816004019081610dee919061338a565b5060a0820151816005019081610e04919061338a565b5060c0820151816006019081610e1a919061338a565b5060e0820151816007019081610e30919061338a565b50610100820151816008019081610e47919061338a565b50610120820151816009019081610e5e919061338a565b5061014082015181600a0160006101000a81548160ff02191690831515021790555090505050505050505050505050565b81816000610e9e338484612044565b905081604051602001610eb19190612fc8565b6040516020818303038152906040528051906020012060016000838152602001908152602001600020604051602001610eea91906130d7565b6040516020818303038152906040528051906020012014610f40576040517f08c379a0000000000000000000000000000000000000000000000000000000008152600401610f379061313a565b60405180910390fd5b6000610f4d338787612044565b90506000602082600060208110610f6757610f6661315a565b5b1a60f81b60f81c60ff16610f7b91906131c2565b90506000610f888261207a565b9050806000808581526020019081526020016000206000828254179250508190555086604051610fb89190612fc8565b60405180910390208873ffffffffffffffffffffffffffffffffffffffff163373ffffffffffffffffffffffffffffffffffffffff167ff458a6134491d63bea827b8e9366ebc67361bdd8733bc0e0e9ba1a23ac9a85dc60405160405180910390a45050505050505050565b60607f000000000000000000000000000000000000000000000000000000000000000073ffffffffffffffffffffffffffffffffffffffff166338e21cce336040518263ffffffff1660e01b815260040161107f91906138a3565b602060405180830381865afa15801561109c573d6000803e3d6000fd5b505050506040513d601f19601f820116820180604052508101906110c091906138ea565b6110f6576040517f512e6ab200000000000000000000000000000000000000000000000000000000815260040160405180910390fd5b6000611103843385612044565b905060008060008381526020019081526020016000205403611151576040517f6a54976200000000000000000000000000000000000000000000000000000000815260040160405180910390fd5b600061115e853386612044565b905060046000828152602001908152602001600020805461117e9061300e565b80601f01602080910402602001604051908101604052809291908181526020018280546111aa9061300e565b80156111f75780601f106111cc576101008083540402835291602001916111f7565b820191906000526020600020905b8154815290600101906020018083116111da57829003601f168201915b50505050509250505092915050565b60603373ffffffffffffffffffffffffffffffffffffffff168373ffffffffffffffffffffffffffffffffffffffff161461126d576040517f0c6f7d1100000000000000000000000000000000000000000000000000000000815260040160405180910390fd5b8160405160200161127e9190612efb565b604051602081830303815290604052805190602001206040516020016112a3906134a8565b604051602081830303815290604052805190602001200361139057600260008473ffffffffffffffffffffffffffffffffffffffff1673ffffffffffffffffffffffffffffffffffffffff168152602001908152602001600020600001805461130b9061300e565b80601f01602080910402602001604051908101604052809291908181526020018280546113379061300e565b80156113845780601f1061135957610100808354040283529160200191611384565b820191906000526020600020905b81548152906001019060200180831161136757829003601f168201915b50505050509050611dfd565b816040516020016113a19190612efb565b604051602081830303815290604052805190602001206040516020016113c690613514565b60405160208183030381529060405280519060200120036114b357600260008473ffffffffffffffffffffffffffffffffffffffff1673ffffffffffffffffffffffffffffffffffffffff168152602001908152602001600020600101805461142e9061300e565b80601f016020809104026020016040519081016040528092919081815260200182805461145a9061300e565b80156114a75780601f1061147c576101008083540402835291602001916114a7565b820191906000526020600020905b81548152906001019060200180831161148a57829003601f168201915b50505050509050611dfd565b816040516020016114c49190612efb565b604051602081830303815290604052805190602001206040516020016114e990613580565b60405160208183030381529060405280519060200120036115d657600260008473ffffffffffffffffffffffffffffffffffffffff1673ffffffffffffffffffffffffffffffffffffffff16815260200190815260200160002060020180546115519061300e565b80601f016020809104026020016040519081016040528092919081815260200182805461157d9061300e565b80156115ca5780601f1061159f576101008083540402835291602001916115ca565b820191906000526020600020905b8154815290600101906020018083116115ad57829003601f168201915b50505050509050611dfd565b816040516020016115e79190612efb565b6040516020818303038152906040528051906020012060405160200161160c906135ec565b60405160208183030381529060405280519060200120036116f957600260008473ffffffffffffffffffffffffffffffffffffffff1673ffffffffffffffffffffffffffffffffffffffff16815260200190815260200160002060030180546116749061300e565b80601f01602080910402602001604051908101604052809291908181526020018280546116a09061300e565b80156116ed5780601f106116c2576101008083540402835291602001916116ed565b820191906000526020600020905b8154815290600101906020018083116116d057829003601f168201915b50505050509050611dfd565b8160405160200161170a9190612efb565b6040516020818303038152906040528051906020012060405160200161172f90613658565b604051602081830303815290604052805190602001200361181c57600260008473ffffffffffffffffffffffffffffffffffffffff1673ffffffffffffffffffffffffffffffffffffffff16815260200190815260200160002060040180546117979061300e565b80601f01602080910402602001604051908101604052809291908181526020018280546117c39061300e565b80156118105780601f106117e557610100808354040283529160200191611810565b820191906000526020600020905b8154815290600101906020018083116117f357829003601f168201915b50505050509050611dfd565b8160405160200161182d9190612efb565b60405160208183030381529060405280519060200120604051602001611852906136c4565b604051602081830303815290604052805190602001200361193f57600260008473ffffffffffffffffffffffffffffffffffffffff1673ffffffffffffffffffffffffffffffffffffffff16815260200190815260200160002060050180546118ba9061300e565b80601f01602080910402602001604051908101604052809291908181526020018280546118e69061300e565b80156119335780601f1061190857610100808354040283529160200191611933565b820191906000526020600020905b81548152906001019060200180831161191657829003601f168201915b50505050509050611dfd565b816040516020016119509190612efb565b6040516020818303038152906040528051906020012060405160200161197590613730565b6040516020818303038152906040528051906020012003611a6257600260008473ffffffffffffffffffffffffffffffffffffffff1673ffffffffffffffffffffffffffffffffffffffff16815260200190815260200160002060060180546119dd9061300e565b80601f0160208091040260200160405190810160405280929190818152602001828054611a099061300e565b8015611a565780601f10611a2b57610100808354040283529160200191611a56565b820191906000526020600020905b815481529060010190602001808311611a3957829003601f168201915b50505050509050611dfd565b81604051602001611a739190612efb565b60405160208183030381529060405280519060200120604051602001611a989061379c565b6040516020818303038152906040528051906020012003611b8557600260008473ffffffffffffffffffffffffffffffffffffffff1673ffffffffffffffffffffffffffffffffffffffff1681526020019081526020016000206007018054611b009061300e565b80601f0160208091040260200160405190810160405280929190818152602001828054611b2c9061300e565b8015611b795780601f10611b4e57610100808354040283529160200191611b79565b820191906000526020600020905b815481529060010190602001808311611b5c57829003601f168201915b50505050509050611dfd565b81604051602001611b969190612efb565b60405160208183030381529060405280519060200120604051602001611bbb90613808565b6040516020818303038152906040528051906020012003611ca857600260008473ffffffffffffffffffffffffffffffffffffffff1673ffffffffffffffffffffffffffffffffffffffff1681526020019081526020016000206008018054611c239061300e565b80601f0160208091040260200160405190810160405280929190818152602001828054611c4f9061300e565b8015611c9c5780601f10611c7157610100808354040283529160200191611c9c565b820191906000526020600020905b815481529060010190602001808311611c7f57829003601f168201915b50505050509050611dfd565b81604051602001611cb99190612efb565b60405160208183030381529060405280519060200120604051602001611cde90613874565b6040516020818303038152906040528051906020012003611dcb57600260008473ffffffffffffffffffffffffffffffffffffffff1673ffffffffffffffffffffffffffffffffffffffff1681526020019081526020016000206009018054611d469061300e565b80601f0160208091040260200160405190810160405280929190818152602001828054611d729061300e565b8015611dbf5780601f10611d9457610100808354040283529160200191611dbf565b820191906000526020600020905b815481529060010190602001808311611da257829003601f168201915b50505050509050611dfd565b6040517f0d62c4d000000000000000000000000000000000000000000000000000000000815260040160405180910390fd5b92915050565b600080611e11848685612044565b90506000602082600060208110611e2b57611e2a61315a565b5b1a60f81b60f81c60ff16611e3f91906131c2565b90506000611e4c8261207a565b90506000816000808681526020019081526020016000205416141593505050509392505050565b6000611e80833384612044565b90506000600160008381526020019081526020016000208054611ea29061300e565b905014611ee4576040517f08c379a0000000000000000000000000000000000000000000000000000000008152600401611edb90613963565b60405180910390fd5b81600160008381526020019081526020016000209081611f04919061338a565b5081604051611f139190612fc8565b60405180910390203373ffffffffffffffffffffffffffffffffffffffff168473ffffffffffffffffffffffffffffffffffffffff167f16d065f1eb4e9eb9d81ef1ac8d5a705b0e9446f547727b761afd319c8fe4e41660405160405180910390a4505050565b6000600360008373ffffffffffffffffffffffffffffffffffffffff1673ffffffffffffffffffffffffffffffffffffffff168152602001908152602001600020549050919050565b600080611fcf836120f7565b604051602001611fdf91906139f0565b60405160208183030381529060405280519060200120905080600360008573ffffffffffffffffffffffffffffffffffffffff1673ffffffffffffffffffffffffffffffffffffffff1681526020019081526020016000208190555080915050919050565b600083838360405160200161205b93929190613a16565b6040516020818303038152906040528051906020012090509392505050565b6000816001901b9050919050565b6000806000806120978561277b565b925092509250600186828585604051600081526020016040526040516120c09493929190613a70565b6020604051602081039080840390855afa1580156120e2573d6000803e3d6000fd5b50505060206040510351935050505092915050565b600080600260008473ffffffffffffffffffffffffffffffffffffffff1673ffffffffffffffffffffffffffffffffffffffff168152602001908152602001600020604051806101600160405290816000820180546121559061300e565b80601f01602080910402602001604051908101604052809291908181526020018280546121819061300e565b80156121ce5780601f106121a3576101008083540402835291602001916121ce565b820191906000526020600020905b8154815290600101906020018083116121b157829003601f168201915b505050505081526020016001820180546121e79061300e565b80601f01602080910402602001604051908101604052809291908181526020018280546122139061300e565b80156122605780601f1061223557610100808354040283529160200191612260565b820191906000526020600020905b81548152906001019060200180831161224357829003601f168201915b505050505081526020016002820180546122799061300e565b80601f01602080910402602001604051908101604052809291908181526020018280546122a59061300e565b80156122f25780601f106122c7576101008083540402835291602001916122f2565b820191906000526020600020905b8154815290600101906020018083116122d557829003601f168201915b5050505050815260200160038201805461230b9061300e565b80601f01602080910402602001604051908101604052809291908181526020018280546123379061300e565b80156123845780601f1061235957610100808354040283529160200191612384565b820191906000526020600020905b81548152906001019060200180831161236757829003601f168201915b5050505050815260200160048201805461239d9061300e565b80601f01602080910402602001604051908101604052809291908181526020018280546123c99061300e565b80156124165780601f106123eb57610100808354040283529160200191612416565b820191906000526020600020905b8154815290600101906020018083116123f957829003601f168201915b5050505050815260200160058201805461242f9061300e565b80601f016020809104026020016040519081016040528092919081815260200182805461245b9061300e565b80156124a85780601f1061247d576101008083540402835291602001916124a8565b820191906000526020600020905b81548152906001019060200180831161248b57829003601f168201915b505050505081526020016006820180546124c19061300e565b80601f01602080910402602001604051908101604052809291908181526020018280546124ed9061300e565b801561253a5780601f1061250f5761010080835404028352916020019161253a565b820191906000526020600020905b81548152906001019060200180831161251d57829003601f168201915b505050505081526020016007820180546125539061300e565b80601f016020809104026020016040519081016040528092919081815260200182805461257f9061300e565b80156125cc5780601f106125a1576101008083540402835291602001916125cc565b820191906000526020600020905b8154815290600101906020018083116125af57829003601f168201915b505050505081526020016008820180546125e59061300e565b80601f01602080910402602001604051908101604052809291908181526020018280546126119061300e565b801561265e5780601f106126335761010080835404028352916020019161265e565b820191906000526020600020905b81548152906001019060200180831161264157829003601f168201915b505050505081526020016009820180546126779061300e565b80601f01602080910402602001604051908101604052809291908181526020018280546126a39061300e565b80156126f05780601f106126c5576101008083540402835291602001916126f0565b820191906000526020600020905b8154815290600101906020018083116126d357829003601f168201915b50505050508152602001600a820160009054906101000a900460ff1615151515815250509050806000015181602001518260400151836060015184608001518560a001518660e0015187610100015188610120015160405160200161275d99989796959493929190613ab5565b60405160208183030381529060405280519060200120915050919050565b600080600060418451146127bb576040517f67d7c25e00000000000000000000000000000000000000000000000000000000815260040160405180910390fd5b6020840151925060408401519150606084015160001a90509193909250565b6000604051905090565b600080fd5b600080fd5b600073ffffffffffffffffffffffffffffffffffffffff82169050919050565b6000612819826127ee565b9050919050565b6128298161280e565b811461283457600080fd5b50565b60008135905061284681612820565b92915050565b600060208284031215612862576128616127e4565b5b600061287084828501612837565b91505092915050565b6000819050919050565b61288c81612879565b82525050565b60006020820190506128a76000830184612883565b92915050565b600080fd5b600080fd5b6000601f19601f8301169050919050565b7f4e487b7100000000000000000000000000000000000000000000000000000000600052604160045260246000fd5b612900826128b7565b810181811067ffffffffffffffff8211171561291f5761291e6128c8565b5b80604052505050565b60006129326127da565b905061293e82826128f7565b919050565b600067ffffffffffffffff82111561295e5761295d6128c8565b5b612967826128b7565b9050602081019050919050565b82818337600083830152505050565b600061299661299184612943565b612928565b9050828152602081018484840111156129b2576129b16128b2565b5b6129bd848285612974565b509392505050565b600082601f8301126129da576129d96128ad565b5b81356129ea848260208601612983565b91505092915050565b60008060408385031215612a0a57612a096127e4565b5b6000612a1885828601612837565b925050602083013567ffffffffffffffff811115612a3957612a386127e9565b5b612a45858286016129c5565b9150509250929050565b600067ffffffffffffffff821115612a6a57612a696128c8565b5b612a73826128b7565b9050602081019050919050565b6000612a93612a8e84612a4f565b612928565b905082815260208101848484011115612aaf57612aae6128b2565b5b612aba848285612974565b509392505050565b600082601f830112612ad757612ad66128ad565b5b8135612ae7848260208601612a80565b91505092915050565b60008060408385031215612b0757612b066127e4565b5b6000612b1585828601612837565b925050602083013567ffffffffffffffff811115612b3657612b356127e9565b5b612b4285828601612ac2565b9150509250929050565b60008115159050919050565b612b6181612b4c565b82525050565b6000602082019050612b7c6000830184612b58565b92915050565b600080600060608486031215612b9b57612b9a6127e4565b5b6000612ba986828701612837565b935050602084013567ffffffffffffffff811115612bca57612bc96127e9565b5b612bd6868287016129c5565b925050604084013567ffffffffffffffff811115612bf757612bf66127e9565b5b612c03868287016129c5565b9150509250925092565b60008060408385031215612c2457612c236127e4565b5b600083013567ffffffffffffffff811115612c4257612c416127e9565b5b612c4e858286016129c5565b925050602083013567ffffffffffffffff811115612c6f57612c6e6127e9565b5b612c7b858286016129c5565b9150509250929050565b6000806000806000806000806000806101408b8d031215612ca957612ca86127e4565b5b60008b013567ffffffffffffffff811115612cc757612cc66127e9565b5b612cd38d828e016129c5565b9a505060208b013567ffffffffffffffff811115612cf457612cf36127e9565b5b612d008d828e016129c5565b99505060408b013567ffffffffffffffff811115612d2157612d206127e9565b5b612d2d8d828e016129c5565b98505060608b013567ffffffffffffffff811115612d4e57612d4d6127e9565b5b612d5a8d828e016129c5565b97505060808b013567ffffffffffffffff811115612d7b57612d7a6127e9565b5b612d878d828e016129c5565b96505060a08b013567ffffffffffffffff811115612da857612da76127e9565b5b612db48d828e016129c5565b95505060c08b013567ffffffffffffffff811115612dd557612dd46127e9565b5b612de18d828e016129c5565b94505060e08b013567ffffffffffffffff811115612e0257612e016127e9565b5b612e0e8d828e016129c5565b9350506101008b013567ffffffffffffffff811115612e3057612e2f6127e9565b5b612e3c8d828e016129c5565b9250506101208b013567ffffffffffffffff811115612e5e57612e5d6127e9565b5b612e6a8d828e016129c5565b9150509295989b9194979a5092959850565b600081519050919050565b600082825260208201905092915050565b60005b83811015612eb6578082015181840152602081019050612e9b565b60008484015250505050565b6000612ecd82612e7c565b612ed78185612e87565b9350612ee7818560208601612e98565b612ef0816128b7565b840191505092915050565b60006020820190508181036000830152612f158184612ec2565b905092915050565b600080600060608486031215612f3657612f356127e4565b5b6000612f4486828701612837565b9350506020612f5586828701612837565b925050604084013567ffffffffffffffff811115612f7657612f756127e9565b5b612f82868287016129c5565b9150509250925092565b600081905092915050565b6000612fa282612e7c565b612fac8185612f8c565b9350612fbc818560208601612e98565b80840191505092915050565b6000612fd48284612f97565b915081905092915050565b7f4e487b7100000000000000000000000000000000000000000000000000000000600052602260045260246000fd5b6000600282049050600182168061302657607f821691505b60208210810361303957613038612fdf565b5b50919050565b60008190508160005260206000209050919050565b600081546130618161300e565b61306b8186612f8c565b94506001821660008114613086576001811461309b576130ce565b60ff19831686528115158202860193506130ce565b6130a48561303f565b60005b838110156130c6578154818901526001820191506020810190506130a7565b838801955050505b50505092915050565b60006130e38284613054565b915081905092915050565b7f4f78417574685f5f4e6f74417070726f766564546f5669657700000000000000600082015250565b6000613124601983612e87565b915061312f826130ee565b602082019050919050565b6000602082019050818103600083015261315381613117565b9050919050565b7f4e487b7100000000000000000000000000000000000000000000000000000000600052603260045260246000fd5b6000819050919050565b7f4e487b7100000000000000000000000000000000000000000000000000000000600052601260045260246000fd5b60006131cd82613189565b91506131d883613189565b9250826131e8576131e7613193565b5b828206905092915050565b60006020601f8301049050919050565b600082821b905092915050565b6000600883026132407fffffffffffffffffffffffffffffffffffffffffffffffffffffffffffffffff82613203565b61324a8683613203565b95508019841693508086168417925050509392505050565b6000819050919050565b600061328761328261327d84613189565b613262565b613189565b9050919050565b6000819050919050565b6132a18361326c565b6132b56132ad8261328e565b848454613210565b825550505050565b600090565b6132ca6132bd565b6132d5818484613298565b505050565b5b818110156132f9576132ee6000826132c2565b6001810190506132db565b5050565b601f82111561333e5761330f8161303f565b613318846131f3565b81016020851015613327578190505b61333b613333856131f3565b8301826132da565b50505b505050565b600082821c905092915050565b600061336160001984600802613343565b1980831691505092915050565b600061337a8383613350565b9150826002028217905092915050565b61339382612e7c565b67ffffffffffffffff8111156133ac576133ab6128c8565b5b6133b6825461300e565b6133c18282856132fd565b600060209050601f8311600181146133f457600084156133e2578287015190505b6133ec858261336e565b865550613454565b601f1984166134028661303f565b60005b8281101561342a57848901518255600182019150602085019450602081019050613405565b868310156134475784890151613443601f891682613350565b8355505b6001600288020188555050505b505050505050565b7f6e616d6500000000000000000000000000000000000000000000000000000000600082015250565b6000613492600483612e87565b915061349d8261345c565b602082019050919050565b600060208201905081810360008301526134c181613485565b9050919050565b7f6661746865725f6e616d65000000000000000000000000000000000000000000600082015250565b60006134fe600b83612e87565b9150613509826134c8565b602082019050919050565b6000602082019050818103600083015261352d816134f1565b9050919050565b7f6d6f746865725f6e616d65000000000000000000000000000000000000000000600082015250565b600061356a600b83612e87565b915061357582613534565b602082019050919050565b600060208201905081810360008301526135998161355d565b9050919050565b7f6772616e644661746865725f6e616d6500000000000000000000000000000000600082015250565b60006135d6601083612e87565b91506135e1826135a0565b602082019050919050565b60006020820190508181036000830152613605816135c9565b9050919050565b7f70686f6e655f6e756d6265720000000000000000000000000000000000000000600082015250565b6000613642600c83612e87565b915061364d8261360c565b602082019050919050565b6000602082019050818103600083015261367181613635565b9050919050565b7f646f620000000000000000000000000000000000000000000000000000000000600082015250565b60006136ae600383612e87565b91506136b982613678565b602082019050919050565b600060208201905081810360008301526136dd816136a1565b9050919050565b7f626c6f6f645f67726f7570000000000000000000000000000000000000000000600082015250565b600061371a600b83612e87565b9150613725826136e4565b602082019050919050565b600060208201905081810360008301526137498161370d565b9050919050565b7f636974697a656e736869705f6e756d6265720000000000000000000000000000600082015250565b6000613786601283612e87565b915061379182613750565b602082019050919050565b600060208201905081810360008301526137b581613779565b9050919050565b7f70616e5f6e756d62657200000000000000000000000000000000000000000000600082015250565b60006137f2600a83612e87565b91506137fd826137bc565b602082019050919050565b60006020820190508181036000830152613821816137e5565b9050919050565b7f6c6f636174696f6e000000000000000000000000000000000000000000000000600082015250565b600061385e600883612e87565b915061386982613828565b602082019050919050565b6000602082019050818103600083015261388d81613851565b9050919050565b61389d8161280e565b82525050565b60006020820190506138b86000830184613894565b92915050565b6138c781612b4c565b81146138d257600080fd5b50565b6000815190506138e4816138be565b92915050565b600060208284031215613900576138ff6127e4565b5b600061390e848285016138d5565b91505092915050565b7f4f78417574685f5f4f6e6c794f6e6365416c6c6f776564000000000000000000600082015250565b600061394d601783612e87565b915061395882613917565b602082019050919050565b6000602082019050818103600083015261397c81613940565b9050919050565b7f19457468657265756d205369676e6564204d6573736167653a0a333200000000600082015250565b60006139b9601c83612f8c565b91506139c482613983565b601c82019050919050565b6000819050919050565b6139ea6139e582612879565b6139cf565b82525050565b60006139fb826139ac565b9150613a0782846139d9565b60208201915081905092915050565b6000606082019050613a2b6000830186613894565b613a386020830185613894565b8181036040830152613a4a8184612ec2565b9050949350505050565b600060ff82169050919050565b613a6a81613a54565b82525050565b6000608082019050613a856000830187612883565b613a926020830186613a61565b613a9f6040830185612883565b613aac6060830184612883565b95945050505050565b6000613ac1828c612f97565b9150613acd828b612f97565b9150613ad9828a612f97565b9150613ae58289612f97565b9150613af18288612f97565b9150613afd8287612f97565b9150613b098286612f97565b9150613b158285612f97565b9150613b218284612f97565b91508190509a995050505050505050505056fea26469706673582212203224a598922e1c699bbf3f9c1670fc1b80b3d4ae34c2ce95bc5732ab69e65b7464736f6c63430008110033",
    "linkReferences": {},
    "deployedLinkReferences": {}
}