{
    "_format": "hh-sol-artifact-1",
    "contractName": "NTNFT",
    "sourceName": "contracts/NTNFT.sol",
    "abi": [
        {
            "inputs": [],
            "stateMutability": "nonpayable",
            "type": "constructor"
        },
        {
            "inputs": [],
            "name": "NTNFT__CanOnlyMintOnce",
            "type": "error"
        },
        {
            "inputs": [],
            "name": "NTNFT__NftNotTransferrable",
            "type": "error"
        },
        {
            "inputs": [],
            "name": "NTNFT__NotNFTOwner",
            "type": "error"
        },
        {
            "anonymous": false,
            "inputs": [
                {
                    "indexed": true,
                    "internalType": "address",
                    "name": "owner",
                    "type": "address"
                },
                {
                    "indexed": true,
                    "internalType": "address",
                    "name": "approved",
                    "type": "address"
                },
                {
                    "indexed": true,
                    "internalType": "uint256",
                    "name": "tokenId",
                    "type": "uint256"
                }
            ],
            "name": "Approval",
            "type": "event"
        },
        {
            "anonymous": false,
            "inputs": [
                {
                    "indexed": true,
                    "internalType": "address",
                    "name": "owner",
                    "type": "address"
                },
                {
                    "indexed": true,
                    "internalType": "address",
                    "name": "operator",
                    "type": "address"
                },
                {
                    "indexed": false,
                    "internalType": "bool",
                    "name": "approved",
                    "type": "bool"
                }
            ],
            "name": "ApprovalForAll",
            "type": "event"
        },
        {
            "anonymous": false,
            "inputs": [
                {
                    "indexed": true,
                    "internalType": "address",
                    "name": "from",
                    "type": "address"
                },
                {
                    "indexed": true,
                    "internalType": "address",
                    "name": "to",
                    "type": "address"
                },
                {
                    "indexed": true,
                    "internalType": "uint256",
                    "name": "tokenId",
                    "type": "uint256"
                }
            ],
            "name": "Transfer",
            "type": "event"
        },
        {
            "inputs": [
                {
                    "internalType": "address",
                    "name": "",
                    "type": "address"
                },
                {
                    "internalType": "uint256",
                    "name": "",
                    "type": "uint256"
                }
            ],
            "name": "approve",
            "outputs": [],
            "stateMutability": "pure",
            "type": "function"
        },
        {
            "inputs": [
                {
                    "internalType": "address",
                    "name": "owner",
                    "type": "address"
                }
            ],
            "name": "balanceOf",
            "outputs": [
                {
                    "internalType": "uint256",
                    "name": "",
                    "type": "uint256"
                }
            ],
            "stateMutability": "view",
            "type": "function"
        },
        {
            "inputs": [
                {
                    "internalType": "uint256",
                    "name": "tokenId",
                    "type": "uint256"
                }
            ],
            "name": "burn",
            "outputs": [],
            "stateMutability": "nonpayable",
            "type": "function"
        },
        {
            "inputs": [
                {
                    "internalType": "uint256",
                    "name": "",
                    "type": "uint256"
                }
            ],
            "name": "getApproved",
            "outputs": [
                {
                    "internalType": "address",
                    "name": "",
                    "type": "address"
                }
            ],
            "stateMutability": "pure",
            "type": "function"
        },
        {
            "inputs": [],
            "name": "getTokenCounter",
            "outputs": [
                {
                    "internalType": "uint256",
                    "name": "",
                    "type": "uint256"
                }
            ],
            "stateMutability": "view",
            "type": "function"
        },
        {
            "inputs": [
                {
                    "internalType": "address",
                    "name": "minter",
                    "type": "address"
                }
            ],
            "name": "hasMinted",
            "outputs": [
                {
                    "internalType": "bool",
                    "name": "",
                    "type": "bool"
                }
            ],
            "stateMutability": "view",
            "type": "function"
        },
        {
            "inputs": [
                {
                    "internalType": "address",
                    "name": "",
                    "type": "address"
                },
                {
                    "internalType": "address",
                    "name": "",
                    "type": "address"
                }
            ],
            "name": "isApprovedForAll",
            "outputs": [
                {
                    "internalType": "bool",
                    "name": "",
                    "type": "bool"
                }
            ],
            "stateMutability": "pure",
            "type": "function"
        },
        {
            "inputs": [],
            "name": "mintNft",
            "outputs": [
                {
                    "internalType": "uint256",
                    "name": "",
                    "type": "uint256"
                }
            ],
            "stateMutability": "nonpayable",
            "type": "function"
        },
        {
            "inputs": [],
            "name": "name",
            "outputs": [
                {
                    "internalType": "string",
                    "name": "",
                    "type": "string"
                }
            ],
            "stateMutability": "view",
            "type": "function"
        },
        {
            "inputs": [
                {
                    "internalType": "uint256",
                    "name": "tokenId",
                    "type": "uint256"
                }
            ],
            "name": "ownerOf",
            "outputs": [
                {
                    "internalType": "address",
                    "name": "",
                    "type": "address"
                }
            ],
            "stateMutability": "view",
            "type": "function"
        },
        {
            "inputs": [
                {
                    "internalType": "address",
                    "name": "",
                    "type": "address"
                },
                {
                    "internalType": "address",
                    "name": "",
                    "type": "address"
                },
                {
                    "internalType": "uint256",
                    "name": "",
                    "type": "uint256"
                }
            ],
            "name": "safeTransferFrom",
            "outputs": [],
            "stateMutability": "pure",
            "type": "function"
        },
        {
            "inputs": [
                {
                    "internalType": "address",
                    "name": "",
                    "type": "address"
                },
                {
                    "internalType": "address",
                    "name": "",
                    "type": "address"
                },
                {
                    "internalType": "uint256",
                    "name": "",
                    "type": "uint256"
                },
                {
                    "internalType": "bytes",
                    "name": "",
                    "type": "bytes"
                }
            ],
            "name": "safeTransferFrom",
            "outputs": [],
            "stateMutability": "pure",
            "type": "function"
        },
        {
            "inputs": [
                {
                    "internalType": "address",
                    "name": "",
                    "type": "address"
                },
                {
                    "internalType": "bool",
                    "name": "",
                    "type": "bool"
                }
            ],
            "name": "setApprovalForAll",
            "outputs": [],
            "stateMutability": "pure",
            "type": "function"
        },
        {
            "inputs": [
                {
                    "internalType": "bytes4",
                    "name": "interfaceId",
                    "type": "bytes4"
                }
            ],
            "name": "supportsInterface",
            "outputs": [
                {
                    "internalType": "bool",
                    "name": "",
                    "type": "bool"
                }
            ],
            "stateMutability": "view",
            "type": "function"
        },
        {
            "inputs": [],
            "name": "symbol",
            "outputs": [
                {
                    "internalType": "string",
                    "name": "",
                    "type": "string"
                }
            ],
            "stateMutability": "view",
            "type": "function"
        },
        {
            "inputs": [
                {
                    "internalType": "uint256",
                    "name": "",
                    "type": "uint256"
                }
            ],
            "name": "tokenURI",
            "outputs": [
                {
                    "internalType": "string",
                    "name": "",
                    "type": "string"
                }
            ],
            "stateMutability": "pure",
            "type": "function"
        },
        {
            "inputs": [
                {
                    "internalType": "address",
                    "name": "",
                    "type": "address"
                },
                {
                    "internalType": "address",
                    "name": "",
                    "type": "address"
                },
                {
                    "internalType": "uint256",
                    "name": "",
                    "type": "uint256"
                }
            ],
            "name": "transferFrom",
            "outputs": [],
            "stateMutability": "pure",
            "type": "function"
        }
    ],
    "bytecode": "0x60806040523480156200001157600080fd5b506040518060400160405280600681526020017f4f784175746800000000000000000000000000000000000000000000000000008152506040518060400160405280600281526020017f4f7800000000000000000000000000000000000000000000000000000000000081525081600090816200008f919062000324565b508060019081620000a1919062000324565b5050506200040b565b600081519050919050565b7f4e487b7100000000000000000000000000000000000000000000000000000000600052604160045260246000fd5b7f4e487b7100000000000000000000000000000000000000000000000000000000600052602260045260246000fd5b600060028204905060018216806200012c57607f821691505b602082108103620001425762000141620000e4565b5b50919050565b60008190508160005260206000209050919050565b60006020601f8301049050919050565b600082821b905092915050565b600060088302620001ac7fffffffffffffffffffffffffffffffffffffffffffffffffffffffffffffffff826200016d565b620001b886836200016d565b95508019841693508086168417925050509392505050565b6000819050919050565b6000819050919050565b600062000205620001ff620001f984620001d0565b620001da565b620001d0565b9050919050565b6000819050919050565b6200022183620001e4565b6200023962000230826200020c565b8484546200017a565b825550505050565b600090565b6200025062000241565b6200025d81848462000216565b505050565b5b8181101562000285576200027960008262000246565b60018101905062000263565b5050565b601f821115620002d4576200029e8162000148565b620002a9846200015d565b81016020851015620002b9578190505b620002d1620002c8856200015d565b83018262000262565b50505b505050565b600082821c905092915050565b6000620002f960001984600802620002d9565b1980831691505092915050565b6000620003148383620002e6565b9150826002028217905092915050565b6200032f82620000aa565b67ffffffffffffffff8111156200034b576200034a620000b5565b5b62000357825462000113565b6200036482828562000289565b600060209050601f8311600181146200039c576000841562000387578287015190505b62000393858262000306565b86555062000403565b601f198416620003ac8662000148565b60005b82811015620003d657848901518255600182019150602085019450602081019050620003af565b86831015620003f65784890151620003f2601f891682620002e6565b8355505b6001600288020188555050505b505050505050565b611b1f806200041b6000396000f3fe608060405234801561001057600080fd5b506004361061010b5760003560e01c80636352211e116100a2578063a22cb46511610071578063a22cb465146102ca578063b88d4fde146102e6578063c2229fea14610302578063c87b56dd14610320578063e985e9c5146103505761010b565b80636352211e1461022e5780636e02007d1461025e57806370a082311461027c57806395d89b41146102ac5761010b565b806323b872dd116100de57806323b872dd146101aa57806338e21cce146101c657806342842e0e146101f657806342966c68146102125761010b565b806301ffc9a71461011057806306fdde0314610140578063081812fc1461015e578063095ea7b31461018e575b600080fd5b61012a60048036038101906101259190611197565b610380565b60405161013791906111df565b60405180910390f35b610148610462565b604051610155919061128a565b60405180910390f35b610178600480360381019061017391906112e2565b6104f4565b6040516101859190611350565b60405180910390f35b6101a860048036038101906101a39190611397565b610528565b005b6101c460048036038101906101bf91906113d7565b61055a565b005b6101e060048036038101906101db919061142a565b61058c565b6040516101ed91906111df565b60405180910390f35b610210600480360381019061020b91906113d7565b6105e2565b005b61022c600480360381019061022791906112e2565b610614565b005b610248600480360381019061024391906112e2565b6106dc565b6040516102559190611350565b60405180910390f35b610266610762565b6040516102739190611466565b60405180910390f35b6102966004803603810190610291919061142a565b610773565b6040516102a39190611466565b60405180910390f35b6102b461082a565b6040516102c1919061128a565b60405180910390f35b6102e460048036038101906102df91906114ad565b6108bc565b005b61030060048036038101906102fb9190611622565b6108ee565b005b61030a610920565b6040516103179190611466565b60405180910390f35b61033a600480360381019061033591906112e2565b610a27565b604051610347919061128a565b60405180910390f35b61036a600480360381019061036591906116a5565b610a49565b60405161037791906111df565b60405180910390f35b60007f80ac58cd000000000000000000000000000000000000000000000000000000007bffffffffffffffffffffffffffffffffffffffffffffffffffffffff1916827bffffffffffffffffffffffffffffffffffffffffffffffffffffffff1916148061044b57507f5b5e139f000000000000000000000000000000000000000000000000000000007bffffffffffffffffffffffffffffffffffffffffffffffffffffffff1916827bffffffffffffffffffffffffffffffffffffffffffffffffffffffff1916145b8061045b575061045a82610a7d565b5b9050919050565b60606000805461047190611714565b80601f016020809104026020016040519081016040528092919081815260200182805461049d90611714565b80156104ea5780601f106104bf576101008083540402835291602001916104ea565b820191906000526020600020905b8154815290600101906020018083116104cd57829003601f168201915b5050505050905090565b60006040517fba6925a700000000000000000000000000000000000000000000000000000000815260040160405180910390fd5b6040517fba6925a700000000000000000000000000000000000000000000000000000000815260040160405180910390fd5b6040517fba6925a700000000000000000000000000000000000000000000000000000000815260040160405180910390fd5b6000600760008373ffffffffffffffffffffffffffffffffffffffff1673ffffffffffffffffffffffffffffffffffffffff16815260200190815260200160002060009054906101000a900460ff169050919050565b6040517fba6925a700000000000000000000000000000000000000000000000000000000815260040160405180910390fd5b3373ffffffffffffffffffffffffffffffffffffffff16610634826106dc565b73ffffffffffffffffffffffffffffffffffffffff1614610681576040517f4452355600000000000000000000000000000000000000000000000000000000815260040160405180910390fd5b600760003373ffffffffffffffffffffffffffffffffffffffff1673ffffffffffffffffffffffffffffffffffffffff16815260200190815260200160002060006101000a81549060ff02191690556106d981610ae7565b50565b6000806106e883610c35565b9050600073ffffffffffffffffffffffffffffffffffffffff168173ffffffffffffffffffffffffffffffffffffffff1603610759576040517f08c379a000000000000000000000000000000000000000000000000000000000815260040161075090611791565b60405180910390fd5b80915050919050565b600061076e6006610c72565b905090565b60008073ffffffffffffffffffffffffffffffffffffffff168273ffffffffffffffffffffffffffffffffffffffff16036107e3576040517f08c379a00000000000000000000000000000000000000000000000000000000081526004016107da90611823565b60405180910390fd5b600360008373ffffffffffffffffffffffffffffffffffffffff1673ffffffffffffffffffffffffffffffffffffffff168152602001908152602001600020549050919050565b60606001805461083990611714565b80601f016020809104026020016040519081016040528092919081815260200182805461086590611714565b80156108b25780601f10610887576101008083540402835291602001916108b2565b820191906000526020600020905b81548152906001019060200180831161089557829003601f168201915b5050505050905090565b6040517fba6925a700000000000000000000000000000000000000000000000000000000815260040160405180910390fd5b6040517fba6925a700000000000000000000000000000000000000000000000000000000815260040160405180910390fd5b6000600760003373ffffffffffffffffffffffffffffffffffffffff1673ffffffffffffffffffffffffffffffffffffffff16815260200190815260200160002060009054906101000a900460ff16156109a6576040517f70822e5200000000000000000000000000000000000000000000000000000000815260040160405180910390fd5b60006109b26006610c72565b90506109be6006610c80565b6109c83382610c96565b6001600760003373ffffffffffffffffffffffffffffffffffffffff1673ffffffffffffffffffffffffffffffffffffffff16815260200190815260200160002060006101000a81548160ff0219169083151502179055508091505090565b6060604051806080016040528060598152602001611a91605991399050919050565b60006040517fba6925a700000000000000000000000000000000000000000000000000000000815260040160405180910390fd5b60007f01ffc9a7000000000000000000000000000000000000000000000000000000007bffffffffffffffffffffffffffffffffffffffffffffffffffffffff1916827bffffffffffffffffffffffffffffffffffffffffffffffffffffffff1916149050919050565b6000610af2826106dc565b9050610b02816000846001610cb4565b610b0b826106dc565b90506004600083815260200190815260200160002060006101000a81549073ffffffffffffffffffffffffffffffffffffffff02191690556001600360008373ffffffffffffffffffffffffffffffffffffffff1673ffffffffffffffffffffffffffffffffffffffff168152602001908152602001600020600082825403925050819055506002600083815260200190815260200160002060006101000a81549073ffffffffffffffffffffffffffffffffffffffff021916905581600073ffffffffffffffffffffffffffffffffffffffff168273ffffffffffffffffffffffffffffffffffffffff167fddf252ad1be2c89b69c2b068fc378daa952ba7f163c4a11628f55a4df523b3ef60405160405180910390a4610c31816000846001610cba565b5050565b60006002600083815260200190815260200160002060009054906101000a900473ffffffffffffffffffffffffffffffffffffffff169050919050565b600081600001549050919050565b6001816000016000828254019250508190555050565b610cb0828260405180602001604052806000815250610cc0565b5050565b50505050565b50505050565b610cca8383610d1b565b610cd76000848484610f38565b610d16576040517f08c379a0000000000000000000000000000000000000000000000000000000008152600401610d0d906118b5565b60405180910390fd5b505050565b600073ffffffffffffffffffffffffffffffffffffffff168273ffffffffffffffffffffffffffffffffffffffff1603610d8a576040517f08c379a0000000000000000000000000000000000000000000000000000000008152600401610d8190611921565b60405180910390fd5b610d93816110bf565b15610dd3576040517f08c379a0000000000000000000000000000000000000000000000000000000008152600401610dca9061198d565b60405180910390fd5b610de1600083836001610cb4565b610dea816110bf565b15610e2a576040517f08c379a0000000000000000000000000000000000000000000000000000000008152600401610e219061198d565b60405180910390fd5b6001600360008473ffffffffffffffffffffffffffffffffffffffff1673ffffffffffffffffffffffffffffffffffffffff16815260200190815260200160002060008282540192505081905550816002600083815260200190815260200160002060006101000a81548173ffffffffffffffffffffffffffffffffffffffff021916908373ffffffffffffffffffffffffffffffffffffffff160217905550808273ffffffffffffffffffffffffffffffffffffffff16600073ffffffffffffffffffffffffffffffffffffffff167fddf252ad1be2c89b69c2b068fc378daa952ba7f163c4a11628f55a4df523b3ef60405160405180910390a4610f34600083836001610cba565b5050565b6000610f598473ffffffffffffffffffffffffffffffffffffffff16611100565b156110b2578373ffffffffffffffffffffffffffffffffffffffff1663150b7a02610f82611123565b8786866040518563ffffffff1660e01b8152600401610fa49493929190611a02565b6020604051808303816000875af1925050508015610fe057506040513d601f19601f82011682018060405250810190610fdd9190611a63565b60015b611062573d8060008114611010576040519150601f19603f3d011682016040523d82523d6000602084013e611015565b606091505b50600081510361105a576040517f08c379a0000000000000000000000000000000000000000000000000000000008152600401611051906118b5565b60405180910390fd5b805181602001fd5b63150b7a0260e01b7bffffffffffffffffffffffffffffffffffffffffffffffffffffffff1916817bffffffffffffffffffffffffffffffffffffffffffffffffffffffff1916149150506110b7565b600190505b949350505050565b60008073ffffffffffffffffffffffffffffffffffffffff166110e183610c35565b73ffffffffffffffffffffffffffffffffffffffff1614159050919050565b6000808273ffffffffffffffffffffffffffffffffffffffff163b119050919050565b600033905090565b6000604051905090565b600080fd5b600080fd5b60007fffffffff0000000000000000000000000000000000000000000000000000000082169050919050565b6111748161113f565b811461117f57600080fd5b50565b6000813590506111918161116b565b92915050565b6000602082840312156111ad576111ac611135565b5b60006111bb84828501611182565b91505092915050565b60008115159050919050565b6111d9816111c4565b82525050565b60006020820190506111f460008301846111d0565b92915050565b600081519050919050565b600082825260208201905092915050565b60005b83811015611234578082015181840152602081019050611219565b60008484015250505050565b6000601f19601f8301169050919050565b600061125c826111fa565b6112668185611205565b9350611276818560208601611216565b61127f81611240565b840191505092915050565b600060208201905081810360008301526112a48184611251565b905092915050565b6000819050919050565b6112bf816112ac565b81146112ca57600080fd5b50565b6000813590506112dc816112b6565b92915050565b6000602082840312156112f8576112f7611135565b5b6000611306848285016112cd565b91505092915050565b600073ffffffffffffffffffffffffffffffffffffffff82169050919050565b600061133a8261130f565b9050919050565b61134a8161132f565b82525050565b60006020820190506113656000830184611341565b92915050565b6113748161132f565b811461137f57600080fd5b50565b6000813590506113918161136b565b92915050565b600080604083850312156113ae576113ad611135565b5b60006113bc85828601611382565b92505060206113cd858286016112cd565b9150509250929050565b6000806000606084860312156113f0576113ef611135565b5b60006113fe86828701611382565b935050602061140f86828701611382565b9250506040611420868287016112cd565b9150509250925092565b6000602082840312156114405761143f611135565b5b600061144e84828501611382565b91505092915050565b611460816112ac565b82525050565b600060208201905061147b6000830184611457565b92915050565b61148a816111c4565b811461149557600080fd5b50565b6000813590506114a781611481565b92915050565b600080604083850312156114c4576114c3611135565b5b60006114d285828601611382565b92505060206114e385828601611498565b9150509250929050565b600080fd5b600080fd5b7f4e487b7100000000000000000000000000000000000000000000000000000000600052604160045260246000fd5b61152f82611240565b810181811067ffffffffffffffff8211171561154e5761154d6114f7565b5b80604052505050565b600061156161112b565b905061156d8282611526565b919050565b600067ffffffffffffffff82111561158d5761158c6114f7565b5b61159682611240565b9050602081019050919050565b82818337600083830152505050565b60006115c56115c084611572565b611557565b9050828152602081018484840111156115e1576115e06114f2565b5b6115ec8482856115a3565b509392505050565b600082601f830112611609576116086114ed565b5b81356116198482602086016115b2565b91505092915050565b6000806000806080858703121561163c5761163b611135565b5b600061164a87828801611382565b945050602061165b87828801611382565b935050604061166c878288016112cd565b925050606085013567ffffffffffffffff81111561168d5761168c61113a565b5b611699878288016115f4565b91505092959194509250565b600080604083850312156116bc576116bb611135565b5b60006116ca85828601611382565b92505060206116db85828601611382565b9150509250929050565b7f4e487b7100000000000000000000000000000000000000000000000000000000600052602260045260246000fd5b6000600282049050600182168061172c57607f821691505b60208210810361173f5761173e6116e5565b5b50919050565b7f4552433732313a20696e76616c696420746f6b656e2049440000000000000000600082015250565b600061177b601883611205565b915061178682611745565b602082019050919050565b600060208201905081810360008301526117aa8161176e565b9050919050565b7f4552433732313a2061646472657373207a65726f206973206e6f74206120766160008201527f6c6964206f776e65720000000000000000000000000000000000000000000000602082015250565b600061180d602983611205565b9150611818826117b1565b604082019050919050565b6000602082019050818103600083015261183c81611800565b9050919050565b7f4552433732313a207472616e7366657220746f206e6f6e20455243373231526560008201527f63656976657220696d706c656d656e7465720000000000000000000000000000602082015250565b600061189f603283611205565b91506118aa82611843565b604082019050919050565b600060208201905081810360008301526118ce81611892565b9050919050565b7f4552433732313a206d696e7420746f20746865207a65726f2061646472657373600082015250565b600061190b602083611205565b9150611916826118d5565b602082019050919050565b6000602082019050818103600083015261193a816118fe565b9050919050565b7f4552433732313a20746f6b656e20616c7265616479206d696e74656400000000600082015250565b6000611977601c83611205565b915061198282611941565b602082019050919050565b600060208201905081810360008301526119a68161196a565b9050919050565b600081519050919050565b600082825260208201905092915050565b60006119d4826119ad565b6119de81856119b8565b93506119ee818560208601611216565b6119f781611240565b840191505092915050565b6000608082019050611a176000830187611341565b611a246020830186611341565b611a316040830185611457565b8181036060830152611a4381846119c9565b905095945050505050565b600081519050611a5d8161116b565b92915050565b600060208284031215611a7957611a78611135565b5b6000611a8784828501611a4e565b9150509291505056fe68747470733a2f2f697066732e696f2f697066732f516d63783954395759785532774c756b356270744a5677716a747851504c3853786a67556b6f45614471577a74693f66696c656e616d653d42617369634e46542e706e67a2646970667358221220c8203adb42559632106516af787634ccd6597065ae71f046226b35dc70b3455264736f6c63430008110033",
    "linkReferences": {},
    "deployedLinkReferences": {}
}